:020000040800F2
:10000000C00700209D010008DB130008310E000826
:10001000D9130008E30200083D14000800000000A6
:10002000000000000000000000000000DF130008D6
:10003000E502000800000000DD130008E1130008DD
:10004000B7010008B7010008B7010008B7010008B0
:10005000B7010008B7010008B7010008B7010008A0
:10006000B7010008B7010008B7010008B701000890
:10007000B7010008B7010008B7010008B701000880
:10008000B7010008B7010008B7010008B701000870
:10009000B7010008B7010008B7010008B701000860
:1000A000B7010008B7010008B7010008B701000850
:1000B000B7010008B7010008B7010008B701000840
:1000C000B7010008B7010008B7010008B701000830
:1000D000B7010008B7010008B7010008B701000820
:1000E000B7010008B7010008B7010008B701000810
:1000F000B7010008B7010008B7010008B701000800
:10010000B7010008B7010008B7010008B7010008EF
:10011000B7010008B7010008B7010008B7010008DF
:10012000B7010008B7010008B7010008B7010008CF
:10013000B7010008B7010008B7010008B7010008BF
:10014000B7010008B7010008B7010008B7010008AF
:10015000B7010008B7010008B7010008B70100089F
:10016000B7010008B7010008B7010008B70100088F
:10017000B7010008B7010008B7010008000000003F
:10018000B7010008B7010008DFF80CD000F068F8EC
:1001900000480047E5150008C007002006488047D2
:1001A00006480047FEE7FEE7FEE7FEE7FEE7FEE75C
:1001B000FEE7FEE7FEE7FEE7E51300088901000819
:1001C0002DE9F05F0546002092469B46884606468C
:1001D000814640241BE0284641464746224600F01F
:1001E0002FF853465A46C01A914110D3114618466B
:1001F000224600F016F82D1A67EB01084F462246FA
:100200000120002100F00DF817EB00094E41201EDF
:10021000A4F10104DFDC484631462A464346BDE8E6
:10022000F09F202A04DB203A00FA02F100207047F8
:100230009140C2F1200320FA03F319439040704724
:10024000202A04DB203A21FA02F00021704721FA2B
:1002500002F3D040C2F12002914008431946704792
:10026000064C074D06E0E06840F0010394E8070003
:1002700098471034AC42F6D3FFF78AFF48200008B5
:100280006820000870B58D1810F8014B14F00302B7
:1002900001D110F8012B231106D110F8013B03E026
:1002A00010F8016B01F8016B521EF9D1ABB110F8D7
:1002B000012B04F00C048A1A0C2C03D0A2EB84123C
:1002C0009B1C08E010F8014BA2EB0422F8E712F89F
:1002D000014B01F8014B5B1EF9D5A942D4D3002094
:1002E00070BDFEE77047000030B4B3F5804F18BF13
:1002F0006FF0704105D000BF40F8221030BC0020E4
:10030000704750F82230DFF828C08D8903EA0C03CB
:10031000D1E900C44CEA041C8C688969240244EACF
:1003200005444CEA040C4CEA01011943E4E70000DF
:100330000000F0CF70B40B6850F82320DFF84CC0F9
:10034000D1E9035602EA0C0CD1E9014214433543CA
:100350002C434D692C438D692C43CD692C430D6A88
:100360002C434D6A2C438D6A2C43CD6A2C43CD6BB4
:10037000096B2C43214341EA0C01082A08BF41F0D4
:10038000400140F8231070BC002070478000F0FF4F
:1003900010B400EB82004268D1E9003C43EA0C1340
:1003A000D1F808C08C894FEA0C2C4CEA044C43EA83
:1003B0000C03B1F810C00A4C02F0404204EB0C5C94
:1003C00043EA0C0391F814C0640104EB0C6C8969D6
:1003D00043EA0C0319431143416010BC00207047ED
:1003E0000000F0FF70B5044600F034F90546B4F1A2
:1003F000FF3F02D004480078044400F02BF9401B72
:10040000A042FAD370BD0000540300202DE9F84F3C
:100410000022884EDFF820E201274FF0030A4FF058
:100420000F0800BF0B6807FA02F42340A34240F014
:10043000FB80D1F804C0BCF1020F18BFBCF1120F51
:1004400015D14FEAD20C00EB8C0CDCF820504FEAAF
:1004500042794FEAD96908FA09FB25EA0B05D1F878
:1004600010B00BFA09F949EA0505CCF82050D0F88C
:1004700000904FEA420C91F804B00AFA0CF50BF028
:10048000030B29EA05090BFA0CFB4BEA0909C0F832
:100490000090D1F80490B9F1010F18BFB9F1020F23
:1004A00005D0B9F1110F18BFB9F1120F18D1D0F85A
:1004B0000890D1F80CB029EA05090BFA0CFB4BEABD
:1004C0000909C0F80890D0F8049029EA040491F8CA
:1004D0000490C9F3001909FA02F949EA04044460D6
:1004E000C46824EA05048D6805FA0CFC4CEA040C87
:1004F000C0F80CC0D1F804C01CF0805F7ED0D6F8E4
:1005000000C04CF4804CC6F800C0D6F800C00CF413
:10051000804CCDF800C022F0030C0CF1804505F5AD
:100520009835D5F808C84FEA82744FEA147408FA6F
:1005300004F92CEA090CA0F18049B9F5003938D04A
:10054000A0F18049B9F5013908BF4FF0010930D059
:10055000A0F18049B9F5023908BF4FF0020928D04F
:10056000A0F18049B9F5033908BF4FF0030920D045
:10057000A0F18049B9F5043908BF4FF0040918D03B
:10058000A0F18049B9F5053908BF4FF0050910D031
:10059000A0F18049B9F5063908BF4FF0060908D027
:1005A000A0F18049B9F507390CBF4FF007094FF0AA
:1005B000080909FA04F444EA0C0CC5F808C8DEF886
:1005C00000C04C682CEA030C14F4803F18BF4CEABE
:1005D000030CCEF800C0194CD4F800C04D682CEACA
:1005E000030C15F4003F18BF4CEA030CC4F800C01C
:1005F000134CD4F800C02CEA030C00E014E04D6862
:1006000015F4801F18BF4CEA030CC4F800C00D4C51
:10061000D4F800C04D682CEA030C15F4001F18BF75
:100620004CEA030CC4F800C0521C102AFFF4FAAEC6
:10063000BDE8F88F44380240003C0140043C0140D2
:10064000083C01400C3C0140002A08BF09048161BC
:100650007047000001488068704700005403002084
:100660000248816802781144816070475403002079
:100670000B4810B5016841F400710160016841F454
:1006800080610160016841F480710160032000F025
:1006900075F8002000F006F800F024F8002010BDE6
:1006A000003C024070B50D4D04464FF47A71287835
:1006B000B1FBF0F00A490968B1FBF0F000F0A2FBD1
:1006C00048B9102C07D200222146501E00F024F811
:1006D00000206C6070BD012070BD0000540300203C
:1006E000600300200A4881B0016841F48041016044
:1006F000006800F4804000900648016841F0805195
:100700000160006800F08050009001B07047000068
:100710004438024040380240174B10B41B68C3F302
:100720000223C3F1070CBCF1040F88BF4FF0040C87
:100730001C1D072C34BF0023DB1E012404FA0CFC13
:10074000ACF1010C0CEA0101994004FA03F35B1EC1
:100750001A40114300284FEA0111A1BF00F1E02027
:1007600080F8001410BC704700F00F0000F1E0208A
:1007700080F8141D10BC70470CED00E0074900F034
:1007800007000A684FF6FF031A4042EA002040F0D3
:10079000FD7040F080600860704700000CED00E0E4
:1007A000002804BF012070472DE9F0474D4E044654
:1007B0000F46306801F0FF0800F00F00B84206D283
:1007C00086F80080306800F00F00B84261D12068E0
:1007D000454D10F0020F14D010F0040F03D028681C
:1007E00040F4E0502860207810F0080F03D028680B
:1007F00040F4604028602868A16820F0F0000843B9
:100800002860207810F0010F37D060683749012840
:1008100023D0022818BF0328096823D011F0020F43
:1008200037D0296821F0030141EA00002860FFF772
:1008300011FF81462868616800F00C00B0EB810F61
:1008400018BF41F2883A18D0FFF704FFA0EB090067
:1008500050450BD90320BDE8F087096811F4003F2B
:10086000DFD116E011F0007FDBD112E0286861686B
:1008700000F00C00B0EB810FE6D1306800F00F0003
:10088000B84209D986F80080306800F00F00B842FD
:1008900002D00120BDE8F087207810F0040F05D0C9
:1008A0002868E16820F4E05008432860207810F0C0
:1008B000080F06D02868216920F4604040EAC10092
:1008C000286000F01FF82968094AC1F30311515C40
:1008D000C840084908600020FFF7E4FE0020BDE89A
:1008E000F0870000003C0240083802400038024017
:1008F00038200008600300200148006870470000AD
:10090000600300201848006810F00C02174808BF68
:1009100070471749042A04BF08467047082A18BFC1
:10092000704710B5134C2268236802F03F0213F49D
:10093000800F08D020680023C0F38810A0FB0101BD
:10094000FFF73EFC07E021680023C1F38811A1FBFB
:100950000001FFF735FC2168C1F30141491C490042
:10096000B0FBF1F010BD0000083802400024F40094
:1009700000127A0004380240002804BF01207047AA
:100980002DE9F84F04460078DA4D10F0010F59D0E8
:10099000D948016801F00C0104290AD0006800F070
:1009A0000C0008280ED105F10400006810F4800F37
:1009B00008D0286810F4003F44D06068002800F098
:1009C00096813FE06068B0F5803F19D0B0F5A02F68
:1009D00028680CBF40F4802020F48030286028680C
:1009E0000CBF40F4803020F4802028606068B8B1EB
:1009F000FFF730FE0646286810F4003F05D021E0DE
:100A0000286840F480302860F0E7FFF723FE801B61
:100A1000642800F22A81286810F4003FF5D011E024
:100A2000FFF718FE0646286810F4003F0AD000BF02
:100A3000FFF710FE801B642800F21781286810F46D
:100A4000003FF5D12078AD4F10F0020F4FF00008B5
:100A500047D0A948016811F00C0F16D0006800F0CB
:100A60000C00082804D1A648006810F4800F0CD0B0
:100A7000E06820B34FF001003860FFF7EBFD064659
:100A8000286810F0020F09D011E0286810F0020F5A
:100A90001CBFE06801280AD000F029B9FFF7DAFD91
:100AA000801B02287ED8286810F0020FF6D0286834
:100AB000216920F0F80040EAC100286011E0C7F881
:100AC0000080FFF7C7FD0646286810F0020F08D027
:100AD000FFF7C0FD801B022864D8286810F0020FC1
:100AE000F6D1207810F0080F2AD08648864E61692A
:100AF00099B101210160FFF7ADFD8146306810F02A
:100B0000020F1DD1FFF7A6FDA0EB0900022849D86E
:100B1000306810F0020FF5D012E0C0F80080FFF747
:100B200099FD8146306810F0020F09D0FFF792FD61
:100B3000A0EB0900022835D8306810F0020FF5D17B
:100B4000207810F0040F77D070484FF0000B006849
:100B500010F0805F0AD16D48016841F0805101605A
:100B600000684FF0010B00F080500090684E306834
:100B700010F4807F14D1306840F480703060FFF74B
:100B800069FD8146306810F4807F09D1FFF762FD6E
:100B9000A0EB0900022868D8306810F4807FF5D0F7
:100BA0005C4E00E061E0A06801281BD00528306899
:100BB0000CBF40F0040020F00100306030680CBF32
:100BC00040F0010020F00400C6F80000A06841F2E7
:100BD000883AB8B1FFF73EFD8146306810F0020F49
:100BE00005D021E0306840F001003060EEE7FFF70B
:100BF00031FDA0EB0900504537D8306810F0020FE6
:100C0000F5D011E0FFF726FD8146306810F0020FA5
:100C10000AD000BFFFF71EFDA0EB0900504524D805
:100C2000306810F0020FF5D1BBF1000F04D0374847
:100C3000016821F080510160A069E8B32E4909687C
:100C400001F00C01082952D00228C7F860800FD0AB
:100C5000FFF700FD0446286810F0007F44D000BF75
:100C6000FFF7F8FC001B02283AD90320BDE8F88FF3
:100C7000FFF7F0FC0646286810F0007F09D000BF9F
:100C8000FFF7E8FC801B0228EFD8286810F0007FEF
:100C9000F6D1D4E907010843A16A1F4A490802EBCB
:100CA0000141626A41EA8211084394F82C1040EA3B
:100CB00001611348016000E016E001203866FFF78B
:100CC000C9FC0446286810F0007F0DD1FFF7C2FC74
:100CD000001B0228C9D8286810F0007FF6D003E076
:100CE000286810F0007FBBD10020BDE8F88F0120FC
:100CF000BDE8F88F00380240083802400000474243
:100D000004380240800E47427438024040380240A6
:100D100000700040703802400000FFFF002804BF50
:100D20000120704770B5044690F8490015460E46FC
:100D300028B9002084F84800204600F01BF804F190
:100D400008012068FFF7F6FA3146A2682068FFF72D
:100D50001FFBD4E901022946236BFFF7C5FAA168FE
:100D6000206850F8212042F0010240F821200020A4
:100D700070BD0000F0B587B00024184800940194BD
:100D8000029403940494016800291CBF07B0F0BDCD
:100D9000012101601248016841F001010160006811
:100DA000022500F0010005904FF4F060CDE9000548
:100DB00003260C2769460B48CDE90367FFF726FB9E
:100DC0004EF2B300CDE90005CDE90246694604972D
:100DD0000548FFF71BFB07B0F0BD00004C030020E7
:100DE0003838024000100240000C02404FF0E02171
:100DF000042808690CBF40F0040020F004000861DA
:100E000070470000411EB1F1807F24BF0120704770
:100E10004FF0E0204161054AF02182F8141D0021C5
:100E20008161072101610020704700000FE000E0B0
:100E3000FEE7000030B504461348124D0078012843
:100E400018BF032804D0022818BF04280AD011E0D4
:100E50004FF0000140F2DF1340F21F32084600F06D
:100E600077F807E0002140F21F3340F2DF12084616
:100E700000F06EF80549200A08700C706D1EFBD159
:100E800030BD000000DC0500000000200000046010
:100E900010B54FF0C044012020706420FFF7A2FA83
:100EA00028202070C0202070284826210170C121F0
:100EB000217011210170C5212170352101703E2161
:100EC0000170C7212170BE21017036212170482197
:100ED00001703A21217055210170B121217000214A
:100EE00001701F2101702A21217000210170017001
:100EF0000170EF2101702B21217000210170017020
:100F0000012101703F21017034212170B72121702E
:100F100007210170B62121700A2101708221017020
:100F20002721017000210170112020706420FFF73B
:100F300059FA292020706420FFF754FA2C202070E1
:100F4000BDE810400520FFF74DBA00000000046026
:100F500030B44FF0C0444FF02A0C84F800C0DFF8E2
:100F600038C0050A8CF800508CF80000100A8CF884
:100F700000008CF800202B202070080A8CF800005C
:100F80008CF80010180A8CF800008CF800302C2027
:100F9000207030BC70470000000004602DE9F04F65
:100FA00082B00C460646DDF82C801546191BA2EBD4
:100FB000060048BF49420028B8BF40428142D8BF1E
:100FC0004FF0000906DD304626461D464FF0010968
:100FD00004461346AE4205DD30462E460546204601
:100FE0001C460346A81B00B20190181B48BF404294
:100FF0000FFA80FA019800EBD07047109C42B4BF02
:1010000001204FF0FF300090AE42D2BF4FEA182BC4
:1010100002B0BDE8F08F00BFB9F1000F0BD0A0B255
:10102000B1B20B460246FFF793FF114880F800B0BB
:1010300080F800800AE0B0B2A1B20B460246FFF78A
:1010400087FF0B4880F800B080F80080A7EB0A000B
:1010500007B2002F05DA0098204404B20198384402
:1010600007B2701C06B2AE42D6DD02B0BDE8F08F0A
:10107000000004602DE9F04F14468846091B012248
:1010800083B009B202EB44020A441D46521E00938B
:10109000074613B23A46FFF781FF03200290C4F1DE
:1010A00001000FFA80F9C4EBC43040004FF0000A91
:1010B00000B24FF0010B56460190002CDCBF03B08C
:1010C000BDE8F08FB9F1000F08DB601E04B2019893
:1010D000801C00B2019048440FFA80F9701C06B2DF
:1010E0000BF102000FFA80FB09EB0B000FFA80F9FD
:1010F000029810F0010F1DD0A8EB04010AEB440286
:1011000009B2521C0A44B819521E00B213B2024668
:101110000095FFF743FFA8EB06010AEB460209B270
:10112000521C0A443819521E00B213B202460095EE
:10113000FFF734FF029810F0020F1DD0A8EB040156
:101140000AEB440209B2521C0A44B81B521E00B2F8
:1011500013B202460095FFF721FFA8EB06010AEB48
:10116000460209B2521C0A44381B521E00B213B286
:1011700002460095FFF712FFA642A3DB03B0BDE8CD
:10118000F08F000030B50B44DDE9035402445B1ED0
:10119000521E9BB292B2FFF7DBFE0020002C8CBFE8
:1011A000034A30BD295C1170401C8442FAD830BD1E
:1011B000000004602DE9FF4F9AB0289800EB400032
:1011C0004000109000200690B0E0069B109A1B99FA
:1011D000DDE91CB402FB031109B20A9161494978A7
:1011E000DDE9276719B9B02824BF401CC0B24FF011
:1011F000000A5D4900EB800008440D90200A16901B
:10120000300A15900A98384409900BF101001490A7
:1012100006E000BFBAF1050F08BF4FF0000802D08A
:101220000D9810F80A800A984FF000095044139066
:101230000A980AFB07000C9009980AFB07010C9812
:101240000F91081A401C049018F0010F30D0012FA4
:1012500020D009FB0773149809FB07B103445D1AFA
:1012600004986D1C45434148DDF830C00F9A854213
:1012700074D89BB292B289B21FFA8CF0FFF768FE65
:10128000002D1CBF200A3A4A36D0107014706D1E13
:10129000FBD131E013980BEB090180B289B20B4608
:1012A0000246FFF755FE3249169808700C7023E08D
:1012B000A64221D0012F42D009FB0773149809FBE5
:1012C00007B103445D1A04986D1C45432748DDF8B7
:1012D00030C00F9A854243D89BB292B289B21FFAAE
:1012E0008CF0FFF735FE002D1CBF214A300A03D0D9
:1012F000107016706D1EFBD109F101004FFA80F9D4
:101300004FEA5808B9F1080F9EDB0AF101004FFAC5
:1013100080FABAF1060FFFF67DAF0698401C80B246
:101320000690282824BF1EB0BDE8F08F06991A98B1
:10133000405C002804BF1EB0BDE8F08F45E713985D
:101340000BEB090180B289B20B460246FFF700FEA3
:101350000748159901700670CEE7FFE7054688E754
:101360000546B9E700000020381B000800DC050036
:10137000000004601649174B4FF0010C4FF0C042BB
:1013800001280BD0022810D0032814D0042819D02B
:1013900081F800C036201070882011E081F800C06C
:1013A0003620107088201870704702200870362090
:1013B0001070282004E003200870362010704820A8
:1013C000187070470420087036201070E820F7E786
:1013D0000000002000000460FEE77047704770477F
:1013E000FFF73EB90F48016841F4700101600E48F3
:1013F000016841F0010101600C4A0021116002689E
:1014000022F4102222F080720260031D084A1A6042
:10141000026822F4802202600648016006495806EC
:101420000860704788ED00E000380240083802404C
:10143000103000240C38024008ED00E0FEE702E026
:1014400008C8121F08C1002AFAD17047704700204F
:1014500001E001C1121F002AFBD170472DE9F007FE
:101460005D4F85B087FB00329310A3EBE2725242CE
:1014700002EB820200EB42020292821A87FB0230E8
:101480008310A3EBE07087FB00C34FEAA30CACEB27
:10149000E3735B4203EB830300EB43000390DFF84D
:1014A0003C81101A88FB00204211A2EBE07087FB00
:1014B00000329310A3EBE272524202EB820200EB85
:1014C00042000023E94602AD2026049055F823206F
:1014D00000204FF0050C824204BF00F13004E4B25A
:1014E00000F1010A524504BF00F13104E4B2801C4E
:1014F000BCF1010CEFD109F803400498002808BFA3
:101500008DF802605B1C032BE0DB87FB012082105F
:10151000A2EBE070404200EB800001EB4000091AB2
:10152000029087FB01208210A2EBE07087FB003263
:101530009310A3EBE272524202EB820200EB4200F4
:101540000390081A88FB00104111A1EBE07087FBA3
:1015500000218A10A2EBE171494201EB810100EB0D
:101560004100002301AC049055F823C00020052160
:10157000844504BF00F13002D2B2471CBC4504BF11
:1015800000F13102D2B2801C491EF1D1E25404981C
:10159000002808BF8DF806605B1C032BE4DB1048B5
:1015A000282101709DF8021041709DF80110817092
:1015B0009DF80010C1702C2101719DF80610417139
:1015C0009DF8051081719DF80410C17129210172E7
:1015D00005B0BDE8F0077047676666661F85EB518A
:1015E000B403002092B04FF47A70FEF7FBFEFFF7D1
:1015F0003FF8CC480025016841F080510160006847
:1016000000F080501190C848016841F480410160A9
:101610000068012600F480401190022730040697EC
:10162000CDE9006080010424CDE90704A8200B94D3
:10163000CDE909076846FFF79FF90F20CDE90C07B0
:101640004FF4A050CDE90E504FF480580521CDF84D
:1016500040800CA8FFF7A4F8FFF74EF94FF47A7119
:10166000B0FBF1F0FFF7CEFB0420FFF7BFFB002239
:101670001146501EFFF750F8AC48016841F0800158
:101680000160016801F080010591016841F01001DD
:101690000160016801F010010591016841F0080145
:1016A00001600068DFF8889200F0080005900022D1
:1016B00004214846FEF7C8FF0094CDE9016569465C
:1016C00048460395FEF7A2FE9A48816941F0200141
:1016D000816199494FF02040002208609748C1E994
:1016E0000105CD600D614D618D61CD610D62C1E976
:1016F0000958CD620D634D638D634D640620CDE9BD
:101700000005CDE902050495059569468A480695C8
:10171000FFF704FB002204214846FEF795FF0A204C
:10172000FEF760FE012204214846FEF78DFF4FF4CC
:101730007A70FEF757FEFFF7ABFB0420FFF71AFEA7
:101740004FF6E070FFF776FB7D4C4FF49D794FF438
:1017500078484FF0030A4FF6205B2562C4F8245006
:10176000FFF796FB0420FFF705FE40F2FF70FFF73E
:1017700061FB0622D0231C2110460095FFF70EFCCA
:101780004FF49D72D0231C2110460095FFF706FCF4
:101790001C234FF49D72194606200095FFF7FEFBAF
:1017A000D0234FF49D72194606200095FFF7F6FBF3
:1017B0002068012805D10F2306221D210920FFF7EB
:1017C00059FC6068012806D10F2306221D2140F232
:1017D0003710FFF74FFCA068012805D10F23062220
:1017E000D0210920FFF746FCE068012807D14FF41B
:1017F00078430622D02140F23710FFF73BFCCDE9B9
:10180000008A4FF4784300223C214EA0FFF7D2FC1F
:10181000CDE900B74FF62053DA220F214DA0FFF794
:10182000C9FC28221423042110460095FFF7B6FBBB
:1018300008232422042128200095FFF7AFFB08236A
:101840002C22042128200095FFF7A8FB142328222E
:10185000194618200095FFF7A1FB10231C22142124
:1018600018200095FFF79AFB18231C221421184614
:101870000095FFF793FBCDE90056002308222A21AB
:101880003848FFF797FCCDE9005614220023114693
:101890003548FFF78FFCCDE90056002315222A2199
:1018A0003248FFF787FC4FF47843022213212820A7
:1018B000FFF7E0FB206AA061616AE1614A424042B1
:1018C000D02109EB400001EB4201C4E9040100F022
:1018D0009FF8D4E90610FFF7C1FDCDE900874FF46A
:1018E0007843DA22C8212248FFF764FCA08A4FF42B
:1018F000784301B2208A012200B2FFF7BBFB4FF40C
:10190000FA70FEF76FFD606A0A30606264287FF447
:1019100027AF206A0B3020629A287FF71FAF25621D
:101920001BE70000403802400070004030380240A1
:10193000000C02400000024064030020040100A0EB
:1019400004000020412E522E432E482E452E522EAA
:1019500000000000536F756E6420706F73697469C6
:101960006F6E3A00041A0008081A00080C1A0008E2
:10197000B403002030B583B00024282214230421AE
:1019800010460094FFF70AFB082324220421282094
:101990000094FFF703FB08232C2204212820009445
:1019A000FFF7FCFA14232822194618200094FFF7A9
:1019B000F5FA10231C22142118200094FFF7EEFAE8
:1019C00018231C22142118460094FFF7E7FA01257A
:1019D000002308222A210BA0CDE90045FFF7EAFBEE
:1019E00014220023114608A0CDE90045FFF7E2FBD1
:1019F000002315222A2105A0CDE90045FFF7DAFBD7
:101A000003B030BD78000000790000003000000015
:101A100010B582B01028B4BF01220022C629B4BF7D
:101A2000012300231A402629ACBF012300231A42B8
:101A3000404BA1F10A0C4FF4487206D0CDE90032B8
:101A400014231FFA8CF11A4608E0102811DA26290F
:101A500006DACDE9003214231A461C21062064E080
:101A6000C62906DDCDE900321423BC211A46062022
:101A70005BE0A0F10A04B0F5987F08DCC6290EDD12
:101A8000CDE900321423A0B21A46BC214DE0C6298C
:101A900005DDCDE9003214231A46BC2116E0B0F56D
:101AA000977F16DB262909DDCDE900324FF01403BC
:101AB0001FFA8CF11A464FF4937036E02EDACDE916
:101AC00000324FF014031A464FF01C014FF493708C
:101AD0002BE010280ADA262914DDCDE90032142380
:101AE0001FFA8CF11A464FF498701EE018BF262991
:101AF00006DACDE900321423A0B21A461C2114E004
:101B000010280BDA262909DACDE9003214231A4607
:101B10001C218620FFF736FB02B010BDCDE9003254
:101B200014231FFA8CF1A0B21A46FFF72BFB02B068
:101B300010BD00002C00002000000000003E5B4FA4
:101B40005B3E3E6B4F6B3E1C3E7C3E1C183C7E3C1D
:101B5000181C577D571C1C5E7F5E1C00183C18002B
:101B6000FFE7C3E7FF0018241800FFE7DBE7FF30BB
:101B7000483A060E2629792926407F050507407F29
:101B800005253F5A3CE73C5A7F3E1C1C08081C1C9C
:101B90003E7F14227F22145F5F005F5F06097F0192
:101BA0007F006689956A606060606094A2FFA2947D
:101BB00008047E040810207E201008082A1C08084B
:101BC0001C2A08081E101010100C1E0C1E0C303899
:101BD0003E3830060E3E0E06000000000000005F9A
:101BE00000000007000700147F147F14242A7F2AB6
:101BF0001223130864623649562050000807030078
:101C0000001C2241000041221C002A1C7F1C2A08C3
:101C1000083E080800807030000808080808000026
:101C200060600020100804023E5149453E00427F9A
:101C3000400072494949462141494D331814127FE9
:101C40001027454545393C4A494931412111090789
:101C50003649494936464949291E0000140000000A
:101C600040340000000814224114141414140041DC
:101C700022140802015909063E415D594E7C121199
:101C8000127C7F494949363E414141227F414141D1
:101C90003E7F494949417F090909013E414151734C
:101CA0007F0808087F00417F41002040413F017FBD
:101CB000081422417F404040407F021C027F7F0485
:101CC00008107F3E4141413E7F090909063E4151CE
:101CD000215E7F09192946264949493203017F01BE
:101CE000033F4040403F1F2040201F3F4038403FBF
:101CF000631408146303047804036159494D4300D5
:101D00007F4141410204081020004141417F04020B
:101D100001020440404040400003070800205454A2
:101D200078407F2844443838444444283844442880
:101D30007F385454541800087E090218A4A49C78D3
:101D40007F0804047800447D40002040403D007F2F
:101D50001028440000417F40007C047804787C080F
:101D60000404783844444438FC18242418182424E3
:101D700018FC7C08040408485454542404043F44C8
:101D8000243C4040207C1C2040201C3C4030403CF7
:101D900044281028444C9090907C4464544C440057
:101DA00008364100000077000000413608000201BB
:101DB0000204023C2623263C1EA1A161123A4040A7
:101DC000207A385454555921555579412254547824
:101DD00042215554784020545579400C1E527212BD
:101DE0003955555559395454545939555454580046
:101DF00000457C410002457D420001457C407D124A
:101E000011127DF0282528F07C54554500205454AB
:101E10007C547C0A097F4932494949323A44444456
:101E20003A324A4848303A4141217A3A4240207891
:101E3000009DA0A07D3D4242423D3D4040403D3C92
:101E400024FF2424487E4943662B2FFC2F2BFF09B7
:101E500029F620C0887E09032054547941000044AB
:101E60007D413048484A32384040227A007A0A0A96
:101E7000727D0D19317D2629292F28262929292609
:101E800030484D4020380808080808080808382F4E
:101E900010C8ACBA2F102834FA00007B00000814D8
:101EA0002A142222142A14085500550055AA55AAAE
:101EB00055AAFF55FF55FF000000FF00101010FF4E
:101EC00000141414FF001010FF00FF1010F010F0A9
:101ED000141414FC001414F700FF0000FF00FF149A
:101EE00014F404FC141417101F10101F101F1414E6
:101EF000141F00101010F0000000001F1010101030
:101F00001F10101010F010000000FF101010101023
:101F100010101010FF10000000FF140000FF00FF61
:101F200000001F10170000FC04F4141417101714FD
:101F300014F404F40000FF00F7141414141414141F
:101F4000F700F7141414171410101F101F14141492
:101F5000F4141010F010F000001F101F0000001FFC
:101F600014000000FC140000F010F01010FF10FF2F
:101F7000141414FF141010101F00000000F010FFC4
:101F8000FFFFFFFFF0F0F0F0F0FFFFFF00000000A8
:101F900000FFFF0F0F0F0F0F3844443844FC4A4A2C
:101FA0004A347E02020606027E027E0263554941E1
:101FB000633844443C04407E201E2006027E020218
:101FC00099A5E7A5991C2A492A1C4C7201724C302C
:101FD0004A4D4D303048784830BC625A463D3E4903
:101FE0004949007E0101017E2A2A2A2A2A44445FA7
:101FF000444440514A444040444A51400000FF019B
:1020000003E080FF000008086B6B083612362436A8
:10201000060F090F0600001818000000101000300D
:1020200040FF0101001F01011E00191D1712003C95
:102030003C3C3C00000000000000000000000000EC
:1020400001020304060708096820000800000020B8
:102050006403000084020008C42200086403002016
:102060005C0400004E140008E005010000000401BB
:10207000160112FF011005EE13F79C06000519B8B2
:10208000FFBDFF01A00DEE76F403EE34FFFFEC87F9
:10209000E590191005F71AF75B3E3004B7FFBE262E
:1020A0005012D8F77CE635E4ECFFFFDD70F7BEF7A1
:1020B000BEFFDF26200C5CEC25F696FFDEEC66E426
:1020C000CA744015E50CDCAAF75BEF3CDE57D5512E
:1020D000EF1BCD72DE15F77D68300BE676EED8F695
:1020E000D8E489EEF93810059EF79ED51E400DCD37
:1020F00093EE54D592C4F0EE75DE352A1106100425
:10210000DFEF1A624004BEFFDE3A1124101875C4D6
:10211000AEC4AEEEB6DDB3C510EE96DDF3D5B3EFCB
:102120003BDDD3DE56A0200696EC66F71A7A100D3A
:10213000DE57DE15BCAFDDB1BC4CD5302A2016D33E
:10214000CD51EEB6E5F3BCAFE654E675E6D9F77DC2
:10215000E677F77C28100ED593EE96C510CD10EEDD
:10216000B6C4CED5242009DE14D5B3EEB6D5506062
:10217000112A66B9001010EF3CD572E613AB89D571
:1021800071EEB6CD10DD065011E635E675EED6DD02
:10219000B2E613EED6E655EF3B9E200C72D5B4B4F2
:1021A0002CE5B2B42CDDB2481005DDD3EED70252D7
:1021B000D6024404B6E67700100FD5D4E614C51055
:1021C000B44DEE55BC6DE5F36C12552481285404D2
:1021D000D6DE14911009DECD72EE14BCAFBC2A40DD
:1021E00004CCEFEE26610211325405DDF4F7BE7C1B
:1021F000500CBECD52EE34BC6DC46CEE7528812CF3
:102200004004D6E634F0356E129D2A100655BC2CDB
:10221000CCAE2A42960253F6B680700675E635F7C4
:102220009DF6165C38100654B3CAD50F525275028B
:102230002396EE2C8806B6EE76DE1538100DE6FAFB
:10224000D531E5F3AB89CCCEEE342C525530212C70
:10225000A80475D5D462100FE71BC510E5B2ABA971
:10226000BC0BE5B2EE132E32352CC80696DDD3EF4B
:102270001B8D1011F77DC573C48EA32892E7BC0A8D
:10228000CCADE5925A08061254E5F3DE78B908138E
:102290001AF79EEF5CDE99ABCBAB47CCADDD71D5C9
:1022A00050D616E6440BEF3CBD33C594B48FDE58D0
:1022B000B66D28032D54036E10350300040024F47A
:0422C000000000001A
:040000050800018965
:00000001FF
